:020000006F2D62
:06000600000000000800EC
:10000C000F3083120313FC004730FD00FD0B0C284E
:0A001C00FC0B0C2800000000080097
:0E002600213083120313FD00FD0B1728080084
:100034007B15FB1F24280130F300F201F101F001CC
:08004400FA0DF20CFF30080078
:10004C00FB14FB1F3028FF30F300F200F100F0002E
:08005C00FA0DF20CFF30080060
:0E006400F201F101F001F801F3010030080093
:08007200FA1FF2130030080030
:10007A0083120313DA1B43288612442886165A1B56
:10008A004828061249280616DA1A4D2886114E28DB
:10009A0086155A1A52280611532806154418572845
:1000AA00061458280610861403208610DA195F28C9
:1000BA008612602886165A196428061265280616BA
:1000CA00DA18692886116A2886155A186E280611C0
:1000DA006F28061544187328061474280610861407
:1000EA0003208610441C7B2806207C281320080045
:1000FA0083120313FA017308031D7A147708031D88
:10010A00FA147A080319C928033A031994287A18A1
:10011A009128F61FC728C528F21FC528C7287208C4
:10012A008039FA00F21376088039F6137A06031931
:10013A00A2287A080319C528C72877087302031961
:10014A00A928031CBD28C128760872020319B02801
:10015A00031CBD28C128750871020319B728031C9E
:10016A00BD28C128740870020319C9280318C128B8
:10017A00FA080319C728C528FA080319C528C72881
:10018A0003140800031008000314031508000800EC
:06019A00FB15FF30080018
:1001A00083120313FB017308031D77080319272922
:1001B00072087606FA007708F3077E30031CE428FD
:1001C000F30203182A29E728F302031C2D297208D9
:1001D000F8007108FC007008FD00F817F61703100E
:1001E000F201F101F0011830A0007D1C0129740812
:1001F000F00775080318750FF10776080318760FD6
:10020000F207F20CF10CF00CF80CFC0CFD0C0310D6
:10021000A00BF528F21B1129F80DF00DF10DF20DD0
:10022000F3037B1B701C2329F81F2329F00A0319F1
:10023000F10A0319F20A031D2329F20CF10CF00C48
:10024000F30A03192A29FA1FF21300302F2901306B
:1002500032202F29023026202F2904301A200000B6
:02026000080094
:100262000E3083120313FD00FD0B35290000080038
:1002720083120313F8010830FC00700DF80D7408A6
:10028200F80203184629F8070310F00DFC0B3E296B
:02029200080062
:100294008312031344105808DA003D204414080064
:1002A400831203135808F2007208F100F20A590885
:1002B400F000D90A700884000008F0007108840076
:1002C4007008800071088400000803196A295629FF
:0602D4005808F0000800CC
:1002DA00A0017208031D82297108F2007008F1005A
:1002EA00F001A0157208031D82297108F200F101BC
:1002FA00A01120167208031990292008F302031D81
:10030A00031C94290310F21B9829F00DF10DF20D2C
:10031A00F30B882994290130FC0032209B290230F2
:0E032A00FC001A209B290430FC00392008003A
:0E0338008312031346088A004508820008005D
:1003460083120313D601D7014B08D2004C08D30001
:100356004D08D4004E08D5005508FF3A031DBD29A7
:100366005408FF3A031DBD295308FF3A031DBD2952
:100376005208FF3A031DC7294F08D8002330D90079
:1003860052210330F0009C2B0130D000D41FD62917
:1003960080305406F0007008D400D00A4F0884005C
:1003A6002D308000CF0A0030F0005506031DE529E8
:1003B60070085406031DE52970085306031DE52938
:1003C6005208003A031DEE294F08D8002130D90003
:1003D6005221F0019C2B5508FF3A031DFC295408B5
:1003E600003A031DFC295308003A031DFC29520854
:1003F600003A031D062A4F08D8002730D90052219B
:100406005008F0009C2B0030F4000030F50000305E
:10041600F6007F30F7005208F0005308F100540848
:10042600F2005508F3007D20013003180030F0007B
:1004360070080319392A5208F0005308F1005408CD
:10044600F2005508F3000030F4000030F5002030CB
:10045600F6008230F700D0207008D2007108D30071
:100466007208D4007308D500D703062A0030F400BA
:100476000030F5002030F6008230F7005208F00018
:100486005308F1005408F2005508F3007D200130AE
:10049600031C0030F000700803196C2A5208F000A3
:1004A6005308F1005408F2005508F300CD30F4006B
:1004B600CC30F5004C30F6007B30F700D0207008C9
:1004C600D2007108D3007208D4007308D500D70A89
:1004D600392AFF305205F800FF305305F9007F3006
:1004E6005405FA0000305505FB007808F400790839
:1004F600F5007A08F6007B08F700F40DF50DF60D09
:10050600F70D741000305205F00000305305F1006D
:1005160000305405F200FF305505F3007008D20094
:100526007108D3007208D4007308D5007408520409
:10053600F00075085304F10076085404F2007708B9
:100546005504F3007008D2007108D3007208D40075
:100556007308D5007F305502F0007008D1000130D5
:10056600D5007008F4005208F0005308F100540852
:10057600F2005508F30074080319C82AF00DF10DAE
:10058600F20DF30D7010FF3EBF2A7008D2007108FD
:10059600D3007208D4007308D5005508303EF00029
:1005A6004F08840070088000CF0A80305706F0009C
:1005B6008030013A7002031CE92A8030063AF000C6
:1005C600803057067002031CE92AF02A4F0884007F
:1005D6002E308000CF0A0130D6000630D1005108F7
:1005E600003A03194E2BD5015208F0005308F100CA
:1005F6005408F2005508F300F00DF10DF20DF30D5D
:100606007010F00DF10DF20DF30D70105208F00799
:1006160053080318530FF10754080318540FF20731
:1006260055080318550FF3077008D2007108D30058
:100636007208D4007308D5005208F0005308F10080
:100646005408F2005508F300F00DF10DF20DF30D0C
:1006560070107008D2007108D3007208D4007308B5
:10066600D5005508303EF0004F0884007008800021
:10067600CF0A5608003A031D4C2BD7035708003AF9
:10068600031D4C2B4F0884002E308000CF0A01300A
:10069600D600D103F22AFF304F0784000008303A13
:1006A600031D572BCF034E2BFF304F078400000846
:1006B6002E3A031D5F2BCF035708003A0319982BD8
:1006C6004F08840065308000CF0A80305706F0005E
:1006D6008030003A70020318782B4F0884002D30C2
:1006E6008000CF0A5708003CD7005708D1005708AA
:1006F600093C03188A2B0A30F4005108F00039210E
:100706003030F0074F08840070088000CF0A0A30A6
:10071600F4005108F00039217808F0003030F00775
:100726004F08840070088000CF0A4F0884008001BB
:04073600F0010800C6
:10073A00AF2B803083120313CB00C22BC030CB0007
:10074A00C22B9430CB00C22BD430CB00C22B8030CA
:10075A00CB00C22B831203134B08013A03199E2BB9
:10076A004B08023A0319A32B4B08033A0319A62B89
:10077A004B08043A0319A92BAC2B4C03F0004B0885
:10078A00F0077008CB0044147008DA003D204410CA
:0A079A004D08DA003D204414080069
:1007A400E42B803083120313CB00F72BC030CB0033
:1007B400F72B9430CB00F72BD430CB00F72B8030C1
:1007C400CB00F72B831203134B08013A0319D32BE5
:1007D4004B08023A0319D82B4B08033A0319DB2BB5
:1007E4004B08043A0319DE2BE12B4C03F0004B08B1
:1007F400F0077008CB007008DA003D204410CE01E9
:100804004E084D07840000080319102C4E084D07AC
:1008140084000008D8004A21CE0A022C441408009F
:10082400831203137408003A031D2D2C7508003A33
:10083400031D2D2C7608003A031D2D2C7708003A51
:10084400031D2D2CFF30F000FF30F1007F30F2004B
:10085400FF30F300C82C8312031377080319BC2C50
:1008640073080319BF2C720876068039FA00F21750
:10087400F617A0017208F8007108FC007008FD006A
:100884007408FD027508031C750FFC027608031C2E
:10089400760FF802F801FC01FD01031C582C03102B
:1008A400F20CF10CF00CF80C0130A0007708F30204
:1008B400031C622C7E302007F3070318C22C672C1C
:1008C4007E302007F307031CC52C1830FA07FD0DF2
:1008D400FC0DF80DF00DF10DF20DA00D7408F002F1
:1008E4007508031C750FF1027608031C760FF202DB
:1008F400760DA004201C802C7D148B2C7408F0072A
:1009040075080318750FF10776080318760AF207BD
:100914007D10FA031F307A05031D692C7B1B7D1C97
:10092400B22C0310F00DF10DF20DA00D7408F002BD
:100934007508031C750FF1027608031C760FF2028A
:10094400760D20040139FD070318FC0A0319F80A7F
:10095400031DB22CF80CFC0CFD0CF30A0319C22C79
:10096400FA1FF8137808F2007C08F1007D08F00003
:100974000030C72C0130CD20C72C02303220C72CC8
:0E09840004302620C72C08301A20000008007E
:1009920083120313CC014C084B078400000803198F
:1009A200DA2C4C084B0784000008D8004A21CC0AF4
:0409B200CC2C080041
:1009B6009C218A110A128000840AC50A0319C60AF4
:0809C600F003031DDB2C080007
:1009CE008316031386100610061186110612861260
:1009DE008312861006108612061286110611062044
:1009EE00062006208615061586140320861006207E
:1009FE0086140320861006208614032086100620F7
:100A0E0006118614032086100620861403208610F5
:100A1E008611861686140320861006208612061569
:100A2E0086140320861006118614032086100620D5
:100A3E0086140320861006158614032086100620C1
:100A4E0006118614032086108616061686150615C0
:0C0A5E00861403208610062044140800B3
:100A6A00831203137008F8007108F000F101F20113
:100A7A00F301FB01FC019630F300FA017008F10062
:0C0A8A007808F000F801F2016D2108006E
:100A9600831203139F01C0309F0483161F179F17ED
:100AA60083124B08F000F00D7010F00D7010F00D71
:100AB600701070089F041F1431211F151F1D652D0E
:100AC6000000612D1F101E08F100F00183161E089C
:080AD600F0040030F1040800F7
:100ADE00E225831603138601FF30850090309F00B8
:100AEE00E7240C30DA003D20CB014B253525F630BE
:100AFE00F4002830F5001C30F6008130F700D020CD
:100B0E000030F4000030F5002030F6008230F7009F
:100B1E0012247008C7007108C8007208C900730853
:100B2E00CA000130CB000130CC003E30CD00D223C4
:100B3E004708CB004808CC004908CD004A08CE0033
:100B4E002E30CF00A3212E30CB00C9240130CB0094
:100B5E001030CC00DF30CD009D232B30CB00C924CC
:040B6E007B2DB82DF6
:100BC40021308400233083120313F000BE30C500AB
:080BD4000530C600DB24080017
:040B7C0030340034DD
:080B80004E3461344E340034A0
:080B880049344E3446340034B8
:060B900020344334003460
:100B960000340034003400340034003400340034AF
:100BA600003400340034003400340034003400349F
:0C0BB600743465346D3470343D34003408
:02400E004A2F37
:00000001FF
