:020000001628C0
:0E0006008312031321088A00200882000800DC
:1000140003208A110A128000840AA00A0319A10A83
:08002400F003031D0A28080087
:10002C008316031386018312860106140530FB0028
:10003C000F30FC00F130FD00FD0B2228FC0B2228B8
:10004C00FB0B2228061086140530FB000F30FC0039
:10005C00F130FD00FD0B3028FC0B3028FB0B302859
:10006C00061586100530FB000F30FC00F130FD004A
:10007C00FD0B3E28FC0B3E28FB0B3E2806111B28D3
:02008C00462804
:02400E004A2F37
:00000001FF
